{
  "_format": "hh-sol-artifact-1",
  "contractName": "Message",
  "sourceName": "contracts/Test.sol",
  "abi": [
    {
      "anonymous": false,
      "inputs": [
        {
          "indexed": false,
          "internalType": "string",
          "name": "msg",
          "type": "string"
        }
      ],
      "name": "MessageSet",
      "type": "event"
    },
    {
      "inputs": [],
      "name": "get",
      "outputs": [
        {
          "internalType": "string",
          "name": "",
          "type": "string"
        }
      ],
      "stateMutability": "view",
      "type": "function"
    },
    {
      "inputs": [
        {
          "internalType": "string",
          "name": "_value",
          "type": "string"
        }
      ],
      "name": "set",
      "outputs": [],
      "stateMutability": "nonpayable",
      "type": "function"
    }
  ],
  "bytecode": "0x608060405234801561001057600080fd5b50610586806100206000396000f3fe608060405234801561001057600080fd5b50600436106100365760003560e01c80634ed3885e1461003b5780636d4ce63c14610057575b600080fd5b6100556004803603810190610050919061032e565b610075565b005b61005f6100cf565b60405161006c91906103a8565b60405180910390f35b806000908051906020019061008b929190610223565b507f3d7f415c35b881f2d0a109b3d9a1377e1e14afec5cc1fd06b563ed160c5e2630816040516100bb91906103a8565b60405180910390a16100cc81610161565b50565b6060600080546100de9061047e565b80601f016020809104026020016040519081016040528092919081815260200182805461010a9061047e565b80156101575780601f1061012c57610100808354040283529160200191610157565b820191906000526020600020905b81548152906001019060200180831161013a57829003601f168201915b5050505050905090565b6101f78160405160240161017591906103a8565b6040516020818303038152906040527f41304fac000000000000000000000000000000000000000000000000000000007bffffffffffffffffffffffffffffffffffffffffffffffffffffffff19166020820180517bffffffffffffffffffffffffffffffffffffffffffffffffffffffff83818316178352505050506101fa565b50565b60008151905060006a636f6e736f6c652e6c6f679050602083016000808483855afa5050505050565b82805461022f9061047e565b90600052602060002090601f0160209004810192826102515760008555610298565b82601f1061026a57805160ff1916838001178555610298565b82800160010185558215610298579182015b8281111561029757825182559160200191906001019061027c565b5b5090506102a591906102a9565b5090565b5b808211156102c25760008160009055506001016102aa565b5090565b60006102d96102d4846103ef565b6103ca565b9050828152602081018484840111156102f157600080fd5b6102fc84828561043c565b509392505050565b600082601f83011261031557600080fd5b81356103258482602086016102c6565b91505092915050565b60006020828403121561034057600080fd5b600082013567ffffffffffffffff81111561035a57600080fd5b61036684828501610304565b91505092915050565b600061037a82610420565b610384818561042b565b935061039481856020860161044b565b61039d8161053f565b840191505092915050565b600060208201905081810360008301526103c2818461036f565b905092915050565b60006103d46103e5565b90506103e082826104b0565b919050565b6000604051905090565b600067ffffffffffffffff82111561040a57610409610510565b5b6104138261053f565b9050602081019050919050565b600081519050919050565b600082825260208201905092915050565b82818337600083830152505050565b60005b8381101561046957808201518184015260208101905061044e565b83811115610478576000848401525b50505050565b6000600282049050600182168061049657607f821691505b602082108114156104aa576104a96104e1565b5b50919050565b6104b98261053f565b810181811067ffffffffffffffff821117156104d8576104d7610510565b5b80604052505050565b7f4e487b7100000000000000000000000000000000000000000000000000000000600052602260045260246000fd5b7f4e487b7100000000000000000000000000000000000000000000000000000000600052604160045260246000fd5b6000601f19601f830116905091905056fea264697066735822122051ffec9dce1e35d9faf585334c15861445fda15ba0f9f5daecc253f1930c30c164736f6c63430008040033",
  "linkReferences": {},
  "deployedLinkReferences": {}
}